{"abi":[{"type":"constructor","inputs":[],"stateMutability":"nonpayable"},{"type":"function","name":"admin","inputs":[],"outputs":[{"name":"","type":"address","internalType":"address"}],"stateMutability":"view"},{"type":"function","name":"batchTransactions","inputs":[{"name":"","type":"uint256","internalType":"uint256"},{"name":"","type":"uint256","internalType":"uint256"}],"outputs":[{"name":"from","type":"address","internalType":"address"},{"name":"to","type":"address","internalType":"address"},{"name":"timestamp","type":"uint256","internalType":"uint256"},{"name":"price","type":"uint256","internalType":"uint256"},{"name":"transactionHash","type":"string","internalType":"string"}],"stateMutability":"view"},{"type":"function","name":"createProductBatch","inputs":[{"name":"_farmerAddress","type":"address","internalType":"address"},{"name":"_productName","type":"string","internalType":"string"},{"name":"_productType","type":"string","internalType":"string"},{"name":"_quantity","type":"uint256","internalType":"uint256"},{"name":"_harvestDate","type":"uint256","internalType":"uint256"},{"name":"_expiryDate","type":"uint256","internalType":"uint256"},{"name":"_basePrice","type":"uint256","internalType":"uint256"},{"name":"_originHash","type":"string","internalType":"string"},{"name":"_qualityHash","type":"string","internalType":"string"}],"outputs":[{"name":"","type":"uint256","internalType":"uint256"}],"stateMutability":"nonpayable"},{"type":"function","name":"getBatchDetails","inputs":[{"name":"_batchId","type":"uint256","internalType":"uint256"}],"outputs":[{"name":"currentOwner","type":"address","internalType":"address"},{"name":"farmer","type":"address","internalType":"address"},{"name":"productName","type":"string","internalType":"string"},{"name":"productType","type":"string","internalType":"string"},{"name":"quantity","type":"uint256","internalType":"uint256"},{"name":"harvestDate","type":"uint256","internalType":"uint256"},{"name":"expiryDate","type":"uint256","internalType":"uint256"},{"name":"status","type":"uint8","internalType":"enum AgriculturalSupplyChain.ProductStatus"},{"name":"qualityGrade","type":"uint8","internalType":"enum AgriculturalSupplyChain.QualityGrade"},{"name":"basePrice","type":"uint256","internalType":"uint256"},{"name":"originHash","type":"string","internalType":"string"},{"name":"qualityHash","type":"string","internalType":"string"}],"stateMutability":"view"},{"type":"function","name":"getBatchTransactions","inputs":[{"name":"_batchId","type":"uint256","internalType":"uint256"}],"outputs":[{"name":"","type":"tuple[]","internalType":"struct AgriculturalSupplyChain.Transaction[]","components":[{"name":"from","type":"address","internalType":"address"},{"name":"to","type":"address","internalType":"address"},{"name":"timestamp","type":"uint256","internalType":"uint256"},{"name":"price","type":"uint256","internalType":"uint256"},{"name":"transactionHash","type":"string","internalType":"string"}]}],"stateMutability":"view"},{"type":"function","name":"getStakeholderBatches","inputs":[{"name":"_stakeholder","type":"address","internalType":"address"}],"outputs":[{"name":"","type":"uint256[]","internalType":"uint256[]"}],"stateMutability":"view"},{"type":"function","name":"getStakeholderDetails","inputs":[{"name":"_stakeholder","type":"address","internalType":"address"}],"outputs":[{"name":"role","type":"uint8","internalType":"enum AgriculturalSupplyChain.StakeholderRole"},{"name":"name","type":"string","internalType":"string"},{"name":"isVerified","type":"bool","internalType":"bool"},{"name":"registrationTime","type":"uint256","internalType":"uint256"},{"name":"dataHash","type":"string","internalType":"string"}],"stateMutability":"view"},{"type":"function","name":"isVerifiedStakeholder","inputs":[{"name":"_stakeholder","type":"address","internalType":"address"}],"outputs":[{"name":"","type":"bool","internalType":"bool"}],"stateMutability":"view"},{"type":"function","name":"nextBatchId","inputs":[],"outputs":[{"name":"","type":"uint256","internalType":"uint256"}],"stateMutability":"view"},{"type":"function","name":"productBatches","inputs":[{"name":"","type":"uint256","internalType":"uint256"}],"outputs":[{"name":"batchId","type":"uint256","internalType":"uint256"},{"name":"currentOwner","type":"address","internalType":"address"},{"name":"farmer","type":"address","internalType":"address"},{"name":"productName","type":"string","internalType":"string"},{"name":"productType","type":"string","internalType":"string"},{"name":"quantity","type":"uint256","internalType":"uint256"},{"name":"harvestDate","type":"uint256","internalType":"uint256"},{"name":"expiryDate","type":"uint256","internalType":"uint256"},{"name":"status","type":"uint8","internalType":"enum AgriculturalSupplyChain.ProductStatus"},{"name":"qualityGrade","type":"uint8","internalType":"enum AgriculturalSupplyChain.QualityGrade"},{"name":"basePrice","type":"uint256","internalType":"uint256"},{"name":"originHash","type":"string","internalType":"string"},{"name":"qualityHash","type":"string","internalType":"string"},{"name":"exists","type":"bool","internalType":"bool"}],"stateMutability":"view"},{"type":"function","name":"registerStakeholder","inputs":[{"name":"_stakeholderAddress","type":"address","internalType":"address"},{"name":"_role","type":"uint8","internalType":"enum AgriculturalSupplyChain.StakeholderRole"},{"name":"_name","type":"string","internalType":"string"},{"name":"_dataHash","type":"string","internalType":"string"}],"outputs":[],"stateMutability":"nonpayable"},{"type":"function","name":"stakeholderBatches","inputs":[{"name":"","type":"address","internalType":"address"},{"name":"","type":"uint256","internalType":"uint256"}],"outputs":[{"name":"","type":"uint256","internalType":"uint256"}],"stateMutability":"view"},{"type":"function","name":"stakeholders","inputs":[{"name":"","type":"address","internalType":"address"}],"outputs":[{"name":"stakeholderAddress","type":"address","internalType":"address"},{"name":"role","type":"uint8","internalType":"enum AgriculturalSupplyChain.StakeholderRole"},{"name":"name","type":"string","internalType":"string"},{"name":"isVerified","type":"bool","internalType":"bool"},{"name":"registrationTime","type":"uint256","internalType":"uint256"},{"name":"dataHash","type":"string","internalType":"string"}],"stateMutability":"view"},{"type":"function","name":"transferBatch","inputs":[{"name":"_batchId","type":"uint256","internalType":"uint256"},{"name":"_from","type":"address","internalType":"address"},{"name":"_to","type":"address","internalType":"address"},{"name":"_price","type":"uint256","internalType":"uint256"},{"name":"_transactionHash","type":"string","internalType":"string"}],"outputs":[],"stateMutability":"payable"},{"type":"function","name":"updateAdmin","inputs":[{"name":"_newAdmin","type":"address","internalType":"address"}],"outputs":[],"stateMutability":"nonpayable"},{"type":"function","name":"updateProductStatus","inputs":[{"name":"_batchId","type":"uint256","internalType":"uint256"},{"name":"_owner","type":"address","internalType":"address"},{"name":"_status","type":"uint8","internalType":"enum AgriculturalSupplyChain.ProductStatus"}],"outputs":[],"stateMutability":"nonpayable"},{"type":"function","name":"verifyQuality","inputs":[{"name":"_batchId","type":"uint256","internalType":"uint256"},{"name":"_grade","type":"uint8","internalType":"enum AgriculturalSupplyChain.QualityGrade"},{"name":"_newQualityHash","type":"string","internalType":"string"}],"outputs":[],"stateMutability":"nonpayable"},{"type":"event","name":"ProductBatchCreated","inputs":[{"name":"batchId","type":"uint256","indexed":true,"internalType":"uint256"},{"name":"farmer","type":"address","indexed":true,"internalType":"address"},{"name":"productType","type":"string","indexed":false,"internalType":"string"}],"anonymous":false},{"type":"event","name":"ProductStatusUpdated","inputs":[{"name":"batchId","type":"uint256","indexed":true,"internalType":"uint256"},{"name":"status","type":"uint8","indexed":false,"internalType":"enum AgriculturalSupplyChain.ProductStatus"}],"anonymous":false},{"type":"event","name":"ProductTransferred","inputs":[{"name":"batchId","type":"uint256","indexed":true,"internalType":"uint256"},{"name":"from","type":"address","indexed":true,"internalType":"address"},{"name":"to","type":"address","indexed":true,"internalType":"address"},{"name":"price","type":"uint256","indexed":false,"internalType":"uint256"}],"anonymous":false},{"type":"event","name":"QualityVerified","inputs":[{"name":"batchId","type":"uint256","indexed":true,"internalType":"uint256"},{"name":"grade","type":"uint8","indexed":false,"internalType":"enum AgriculturalSupplyChain.QualityGrade"},{"name":"verifier","type":"address","indexed":true,"internalType":"address"}],"anonymous":false},{"type":"event","name":"StakeholderRegistered","inputs":[{"name":"stakeholder","type":"address","indexed":true,"internalType":"address"},{"name":"role","type":"uint8","indexed":false,"internalType":"enum AgriculturalSupplyChain.StakeholderRole"}],"anonymous":false}],"bytecode":{"object":"0x60806040523461002757610011610132565b61001961002c565b6131f961015382396131f990f35b610032565b60405190565b5f80fd5b5f1b90565b9061004c60018060a01b0391610036565b9181191691161790565b60018060a01b031690565b90565b61007861007361007d92610056565b610061565b610056565b90565b61008990610064565b90565b61009590610080565b90565b90565b906100b06100ab6100b79261008c565b610098565b825461003b565b9055565b90565b90565b6100d56100d06100da926100bb565b610061565b6100be565b90565b906100e95f1991610036565b9181191691161790565b61010761010261010c926100be565b610061565b6100be565b90565b90565b9061012761012261012e926100f3565b61010f565b82546100dd565b9055565b61013c335f61009b565b61015061014960016100c1565b6001610112565b56fe60806040526004361015610013575b611503565b61001d5f3561012c565b80631bd9baac146101275780633297146b146101225780636a7f1fcb1461011d5780636b396d98146101185780636b5a3a2b146101135780636fde54651461010e5780638369a64f146101095780638462a7f81461010457806393858107146100ff5780639d47dcc0146100fa578063a7fede55146100f5578063aaddba58146100f0578063ae51cef9146100eb578063c07cfca9146100e6578063d40d51b8146100e1578063e2f273bd146100dc5763f851a4400361000e576114ce565b611452565b61141b565b61134b565b611213565b611155565b610fc6565b610d46565b610bb9565b610b15565b610ac2565b6109ee565b610975565b6108d1565b610792565b6106f7565b6104f2565b60e01c90565b60405190565b5f80fd5b5f80fd5b5f80fd5b90565b61015081610144565b0361015757565b5f80fd5b9050359061016882610147565b565b9190604083820312610192578061018661018f925f860161015b565b9360200161015b565b90565b61013c565b90565b6101ae6101a96101b392610144565b610197565b610144565b90565b906101c09061019a565b5f5260205260405f2090565b634e487b7160e01b5f52603260045260245ffd5b5490565b5f5260205f2090565b6101f6816101e0565b821015610210576102086005916101e4565b910201905f90565b6101cc565b5f1c90565b60018060a01b031690565b61023161023691610215565b61021a565b90565b6102439054610225565b90565b90565b61025561025a91610215565b610246565b90565b6102679054610249565b90565b634e487b7160e01b5f52602260045260245ffd5b906001600283049216801561029e575b602083101461029957565b61026a565b91607f169161028e565b60209181520190565b5f5260205f2090565b905f92918054906102d46102cd8361027e565b80946102a8565b916001811690815f1461032b57506001146102ef575b505050565b6102fc91929394506102b1565b915f925b81841061031357505001905f80806102ea565b60018160209295939554848601520191019290610300565b92949550505060ff19168252151560200201905f80806102ea565b90610350916102ba565b90565b601f801991011690565b634e487b7160e01b5f52604160045260245ffd5b9061037b90610353565b810190811067ffffffffffffffff82111761039557604052565b61035d565b906103ba6103b3926103aa610132565b93848092610346565b0383610371565b565b6103c79060046101b6565b906103d1826101e0565b811015610423576103e1916101ed565b506103ed5f8201610239565b916103fa60018301610239565b916104076002820161025d565b9161042060046104196003850161025d565b930161039a565b90565b5f80fd5b60018060a01b031690565b61043b90610427565b90565b61044790610432565b9052565b61045490610144565b9052565b5190565b60209181520190565b90825f9392825e0152565b61048f61049860209361049d9361048681610458565b9384809361045c565b95869101610465565b610353565b0190565b91936104d86104ef96946104ce6104e294976104c460a08801995f89019061043e565b602087019061043e565b604085019061044b565b606083019061044b565b6080818403910152610470565b90565b346105275761052361050e61050836600461016a565b906103bc565b9161051a959395610132565b958695866104a1565b0390f35b610138565b61053581610432565b0361053c57565b5f80fd5b9050359061054d8261052c565b565b5f80fd5b5f80fd5b9061056a610563610132565b9283610371565b565b67ffffffffffffffff811161058a57610586602091610353565b0190565b61035d565b90825f939282370152565b909291926105af6105aa8261056c565b610557565b938185526020850190828401116105cb576105c99261058f565b565b610553565b9080601f830112156105ee578160206105eb9335910161059a565b90565b61054f565b91610120838303126106dd5761060b825f8501610540565b92602081013567ffffffffffffffff81116106d8578361062c9183016105d0565b92604082013567ffffffffffffffff81116106d3578161064d9184016105d0565b9261065b826060850161015b565b92610669836080830161015b565b926106778160a0840161015b565b926106858260c0850161015b565b9260e081013567ffffffffffffffff81116106ce57836106a69183016105d0565b9261010082013567ffffffffffffffff81116106c9576106c692016105d0565b90565b610140565b610140565b610140565b610140565b61013c565b91906106f5905f6020850194019061044b565b565b346107315761072d61071c61070d3660046105f3565b9796909695919594929461202a565b610724610132565b918291826106e2565b0390f35b610138565b6005111561074057565b5f80fd5b9050359061075182610736565b565b90916060828403126107885761078561076e845f850161015b565b9361077c8160208601610540565b93604001610744565b90565b61013c565b5f0190565b346107c1576107ab6107a5366004610753565b91612228565b6107b3610132565b806107bd8161078d565b0390f35b610138565b91906040838203126107ee57806107e26107eb925f8601610540565b9360200161015b565b90565b61013c565b61080761080261080c92610427565b610197565b610427565b90565b610818906107f3565b90565b6108249061080f565b90565b906108319061081b565b5f5260205260405f2090565b5490565b5f5260205f2090565b6108538161083d565b82101561086d57610865600191610841565b910201905f90565b6101cc565b1c90565b61088690600861088b9302610872565b610246565b90565b906108999154610876565b90565b6108a7906005610827565b6108b08161083d565b8210156108cd576108ca916108c49161084a565b9061088e565b90565b5f80fd5b34610902576108fe6108ed6108e73660046107c6565b9061089c565b6108f5610132565b918291826106e2565b0390f35b610138565b6004111561091157565b5f80fd5b9050359061092282610907565b565b916060838303126109705761093b825f850161015b565b926109498360208301610915565b92604082013567ffffffffffffffff811161096b5761096892016105d0565b90565b610140565b61013c565b346109a45761098e610988366004610924565b91612357565b610996610132565b806109a08161078d565b0390f35b610138565b906020828203126109c2576109bf915f01610540565b90565b61013c565b151590565b6109d5906109c7565b9052565b91906109ec905f602085019401906109cc565b565b34610a1e57610a1a610a09610a043660046109a9565b612368565b610a11610132565b918291826109d9565b0390f35b610138565b5190565b60209181520190565b60200190565b610a3f90610144565b9052565b90610a5081602093610a36565b0190565b60200190565b90610a77610a71610a6a84610a23565b8093610a27565b92610a30565b905f5b818110610a875750505090565b909192610aa0610a9a6001928651610a43565b94610a54565b9101919091610a7a565b610abf9160208201915f818403910152610a5a565b90565b34610af257610aee610add610ad83660046109a9565b61243c565b610ae5610132565b91829182610aaa565b0390f35b610138565b5f910312610b0157565b61013c565b610b1260015f9061088e565b90565b34610b4557610b25366004610af7565b610b41610b30610b06565b610b38610132565b918291826106e2565b0390f35b610138565b91909160a081840312610bb457610b63835f830161015b565b92610b718160208401610540565b92610b7f8260408501610540565b92610b8d836060830161015b565b92608082013567ffffffffffffffff8111610baf57610bac92016105d0565b90565b610140565b61013c565b610bd0610bc7366004610b4a565b93929092612897565b610bd8610132565b80610be28161078d565b0390f35b90602082820312610bff57610bfc915f0161015b565b90565b61013c565b634e487b7160e01b5f52602160045260245ffd5b60051115610c2257565b610c04565b90610c3182610c18565b565b610c3c90610c27565b90565b610c4890610c33565b9052565b60041115610c5657565b610c04565b90610c6582610c4c565b565b610c7090610c5b565b90565b610c7c90610c67565b9052565b9a96610d0690610cfc610d2698610d439f9d989b948f610cf5610d349f99610d1b9b610cdc60a095610cea93610ccf610d109e610cc56101808a01945f8b019061043e565b602089019061043e565b8682036040880152610470565b908482036060860152610470565b9e608083019061044b565b019061044b565b60c08d019061044b565b60e08b0190610c3f565b610100890190610c73565b61012087019061044b565b848203610140860152610470565b91610160818403910152610470565b90565b34610d8657610d82610d61610d5c366004610be6565b6129fe565b98610d799c9a9c989198979297969396959495610132565b9c8d9c8d610c80565b0390f35b610138565b90610d959061019a565b5f5260205260405f2090565b60ff1690565b610db3610db891610215565b610da1565b90565b610dc59054610da7565b90565b60081c90565b60ff1690565b610de0610de591610dc8565b610dce565b90565b610df29054610dd4565b90565b60ff1690565b610e07610e0c91610215565b610df5565b90565b610e199054610dfb565b90565b610e27906003610d8b565b90610e335f830161025d565b91610e4060018201610239565b91610e4d60028301610239565b91610e5a6003820161039a565b91610e676004830161039a565b91610e746005820161025d565b91610e816006830161025d565b91610e8e6007820161025d565b91610e9b60088301610dbb565b91610ea860088201610de8565b91610eb56009830161025d565b91610ec2600a820161039a565b91610edb600c610ed4600b850161039a565b9301610e0f565b90565b9e9d9b95968f90610fc49e9a610f82610fad9b6101a09f98610fbc9f9794610f6e610f63610f9f9d610f556101209b610f7896610f949f610f479060408f610f8d9f610f4090610f366101c08401985f85019061044b565b602083019061043e565b019061043e565b8c6060818403910152610470565b908a820360808c0152610470565b9e60a089019061044b565b60c087019061044b565b60e085019061044b565b610100830190610c3f565b0190610c73565b6101408c019061044b565b8982036101608b0152610470565b90878203610180890152610470565b9401906109cc565b565b3461100957611005610fe1610fdc366004610be6565b610e1c565b9a610ffc9e9c9e9a919a999299989398979497969596610132565b9e8f9e8f610ede565b0390f35b610138565b5190565b60209181520190565b60200190565b61102a90610432565b9052565b61104d61105660209361105b9361104481610458565b938480936102a8565b95869101610465565b610353565b0190565b6110c091608060a082019261107a5f8201515f850190611021565b61108c60208201516020850190611021565b61109e60408201516040850190610a36565b6110b060608201516060850190610a36565b015190608081840391015261102e565b90565b906110cd9161105f565b90565b60200190565b906110ea6110e38361100e565b8092611012565b90816110fb6020830284019461101b565b925f915b83831061110e57505050505090565b9091929394602061113061112a838560019503875289516110c3565b976110d0565b93019301919392906110ff565b6111529160208201915f8184039101526110d6565b90565b346111855761118161117061116b366004610be6565b612bec565b611178610132565b9182918261113d565b0390f35b610138565b6005111561119457565b610c04565b906111a38261118a565b565b6111ae90611199565b90565b6111ba906111a5565b9052565b91936111f96111ee611203936112109896976111e160a08801925f8901906111b1565b8682036020880152610470565b9560408501906109cc565b606083019061044b565b6080818403910152610470565b90565b346112475761124361122e6112293660046109a9565b612c07565b9161123a959395610132565b958695866111be565b0390f35b610138565b906112569061081b565b5f5260205260405f2090565b60a01c90565b60ff1690565b61127a61127f91611262565b611268565b90565b61128c905461126e565b90565b61129a90600261124c565b906112a65f8301610239565b916112b25f8201611282565b916112bf6001830161039a565b916112cc60028201610e0f565b916112e560046112de6003850161025d565b930161039a565b90565b92611326611348979596926113319261131961133b9661130f60c08a01945f8b019061043e565b60208901906111b1565b8682036040880152610470565b9560608501906109cc565b608083019061044b565b60a0818403910152610470565b90565b346113825761137e6113666113613660046109a9565b61128f565b92611375969496929192610132565b968796876112e8565b0390f35b610138565b6005111561139157565b5f80fd5b905035906113a282611387565b565b90608082820312611416576113bb815f8401610540565b926113c98260208501611395565b92604081013567ffffffffffffffff811161141157836113ea9183016105d0565b92606082013567ffffffffffffffff811161140c5761140992016105d0565b90565b610140565b610140565b61013c565b3461144d5761143761142e3660046113a4565b929190916130c8565b61143f610132565b806114498161078d565b0390f35b610138565b346114805761146a6114653660046109a9565b6131b8565b611472610132565b8061147c8161078d565b0390f35b610138565b61149590600861149a9302610872565b61021a565b90565b906114a89154611485565b90565b6114b65f5f9061149d565b90565b91906114cc905f6020850194019061043e565b565b346114fe576114de366004610af7565b6114fa6114e96114ab565b6114f1610132565b918291826114b9565b0390f35b610138565b5f80fd5b5f90565b5f7f5374616b65686f6c646572206e6f742076657269666965640000000000000000910152565b61153f601860209261045c565b6115488161150b565b0190565b6115619060208101905f818303910152611532565b90565b1561156b57565b611573610132565b62461bcd60e51b8152806115896004820161154c565b0390fd5b906115bc9998979695949392916115b76115b260026115ac858261124c565b01610e0f565b611564565b611dfe565b90565b5f7f4f6e6c79206661726d6572732063616e20637265617465206261746368657300910152565b6115f3601f60209261045c565b6115fc816115bf565b0190565b6116159060208101905f8183039101526115e6565b90565b1561161f57565b611627610132565b62461bcd60e51b81528061163d60048201611600565b0390fd5b90565b61165861165361165d92611641565b610197565b610144565b90565b5f7f5175616e74697479206d7573742062652067726561746572207468616e203000910152565b611694601f60209261045c565b61169d81611660565b0190565b6116b69060208101905f818303910152611687565b90565b156116c057565b6116c8610132565b62461bcd60e51b8152806116de600482016116a1565b0390fd5b60207f7420646174650000000000000000000000000000000000000000000000000000917f4578706972792064617465206d757374206265206166746572206861727665735f8201520152565b61173c602660409261045c565b611745816116e2565b0190565b61175e9060208101905f81830391015261172f565b90565b1561176857565b611770610132565b62461bcd60e51b81528061178660048201611749565b0390fd5b5f7f5072696365206d7573742062652067726561746572207468616e203000000000910152565b6117be601c60209261045c565b6117c78161178a565b0190565b6117e09060208101905f8183039101526117b1565b90565b156117ea57565b6117f2610132565b62461bcd60e51b815280611808600482016117cb565b0390fd5b634e487b7160e01b5f52601160045260245ffd5b61182990610144565b5f1981146118375760010190565b61180c565b5f1b90565b9061184d5f199161183c565b9181191691161790565b90565b9061186f61186a6118769261019a565b611857565b8254611841565b9055565b6118856101c0610557565b90565b9061189290610144565b9052565b906118a090610432565b9052565b52565b906118b190610c27565b9052565b906118bf90610c5b565b9052565b906118cd906109c7565b9052565b634e487b7160e01b5f525f60045260245ffd5b6118ee9051610144565b90565b6118fb9051610432565b90565b9061190f60018060a01b039161183c565b9181191691161790565b90565b9061193161192c6119389261081b565b611919565b82546118fe565b9055565b5190565b601f602091010490565b1b90565b919060086119699102916119635f198461194a565b9261194a565b9181191691161790565b91906119896119846119919361019a565b611857565b90835461194e565b9055565b6119a7916119a1611507565b91611973565b565b5b8181106119b5575050565b806119c25f600193611995565b016119aa565b9190601f81116119d8575b505050565b6119e4611a09936102b1565b9060206119f084611940565b83019310611a11575b611a0290611940565b01906119a9565b5f80806119d3565b9150611a02819290506119f9565b90611a2f905f1990600802610872565b191690565b81611a3e91611a1f565b906002021790565b90611a5081610458565b9067ffffffffffffffff8211611b1057611a7482611a6e855461027e565b856119c8565b602090601f8311600114611aa857918091611a97935f92611a9c575b5050611a34565b90555b565b90915001515f80611a90565b601f19831691611ab7856102b1565b925f5b818110611af857509160029391856001969410611ade575b50505002019055611a9a565b611aee910151601f841690611a1f565b90555f8080611ad2565b91936020600181928787015181550195019201611aba565b61035d565b90611b1f91611a46565b565b611b2b9051610c27565b90565b90611b3a60ff9161183c565b9181191691161790565b611b4d90610c27565b90565b90565b90611b68611b63611b6f92611b44565b611b50565b8254611b2e565b9055565b611b7d9051610c5b565b90565b60081b90565b90611b9361ff0091611b80565b9181191691161790565b611ba690610c5b565b90565b90565b90611bc1611bbc611bc892611b9d565b611ba9565b8254611b86565b9055565b611bd690516109c7565b90565b611be2906109c7565b90565b90565b90611bfd611bf8611c0492611bd9565b611be5565b8254611b2e565b9055565b90611d656101a0600c611d6b94611c2c5f8201611c265f88016118e4565b9061185a565b611c4560018201611c3f602088016118f1565b9061191c565b611c5e60028201611c58604088016118f1565b9061191c565b611c7760038201611c716060880161193c565b90611b15565b611c9060048201611c8a6080880161193c565b90611b15565b611ca960058201611ca360a088016118e4565b9061185a565b611cc260068201611cbc60c088016118e4565b9061185a565b611cdb60078201611cd560e088016118e4565b9061185a565b611cf560088201611cef6101008801611b21565b90611b53565b611d0f60088201611d096101208801611b73565b90611bac565b611d2960098201611d2361014088016118e4565b9061185a565b611d43600a8201611d3d610160880161193c565b90611b15565b611d5d600b8201611d57610180880161193c565b90611b15565b019201611bcc565b90611be8565b565b90611d7791611c08565b565b90565b5f5260205f2090565b5490565b611d9281611d85565b821015611dac57611da4600191611d7c565b910201905f90565b6101cc565b9081549168010000000000000000831015611de15782611dd9916001611ddf95018155611d89565b90611973565b565b61035d565b611dfb9160208201915f818403910152610470565b90565b9892969097919395949850600288611e159161124c565b5f01611e2090611282565b5f611e2a90611199565b90611e3490611199565b14611e3e90611618565b855f611e4990611644565b90611e5390610144565b11611e5d906116b9565b8489611e6890610144565b90611e7290610144565b11611e7c90611761565b805f611e8790611644565b90611e9190610144565b11611e9b906117e3565b611ea5600161025d565b611eae81611820565b611eb990600161185a565b98899689968a96928a929091925f945f9697989960019b611ed861187a565b809e5f820190611ee791611888565b60200190611ef491611896565b60408d0190611f0291611896565b60608c0190611f10916118a4565b60808b0190611f1e916118a4565b60a08a0190611f2c91611888565b60c0890190611f3a91611888565b60e0880190611f4891611888565b610100870190611f57916118a7565b610120860190611f66916118b5565b610140850190611f7591611888565b610160840190611f84916118a4565b610180830190611f93916118a4565b6101a0820190611fa2916118c3565b600384611fae91610d8b565b90611fb891611d6d565b600582611fc491610827565b611fcd90611d79565b83611fd791611db1565b829190917fb4aba86f9fc3656c19a28bb18be5c8728b43bebe1bc09856fc32ca4a43d8aaa4906120069061019a565b916120109061081b565b92612019610132565b612024819282611de6565b0390a390565b90612043989796959493929161203e611507565b61158d565b90565b5f7f4e6f7420746865206261746368206f776e657200000000000000000000000000910152565b61207a601360209261045c565b61208381612046565b0190565b61209c9060208101905f81830391015261206d565b90565b156120a657565b6120ae610132565b62461bcd60e51b8152806120c460048201612087565b0390fd5b906121069291612101816120fb6120f56120ef60016120e988956003610d8b565b01610239565b92610432565b91610432565b1461209f565b61218a565b565b5f7f426174636820646f6573206e6f74206578697374000000000000000000000000910152565b61213c601460209261045c565b61214581612108565b0190565b61215e9060208101905f81830391015261212f565b90565b1561216857565b612170610132565b62461bcd60e51b81528061218660048201612149565b0390fd5b906121b392916121ae6121a9600c6121a3846003610d8b565b01610e0f565b612161565b6121ca565b565b91906121c8905f60208501940190610c3f565b565b90506121e48260086121de60038590610d8b565b01611b53565b6122236122117fb8a3401adfc11253c3aff18e4b48103cec45c852b9afc487c23f32e26746242c9261019a565b9261221a610132565b918291826121b5565b0390a2565b9061223392916120c8565b565b9061225d9291612258612253600261224d338261124c565b01610e0f565b611564565b61225f565b565b90612288929161228361227e600c612278846003610d8b565b01610e0f565b612161565b6122a6565b565b90565b5190565b91906122a4905f60208501940190610c73565b565b90916122c08360086122ba60038690610d8b565b01611bac565b6122d16122cc8261228a565b61228d565b6122e36122dd5f611644565b91610144565b11612339575b50339061233461232261231c7f76826af0a60f79614c94f6c8a71ac318e3d8e9e7dc244b499e786db3c1f549d49361019a565b9361081b565b9361232b610132565b91829182612291565b0390a3565b61235190600b61234b60038590610d8b565b01611b15565b5f6122e9565b906123629291612235565b565b5f90565b600261238061238692612379612364565b508261124c565b01610e0f565b90565b606090565b60209181520190565b6123a19054610249565b90565b60010190565b906123c76123c16123ba8461083d565b809361238e565b92610841565b905f5b8181106123d75750505090565b9091926123f76123f16001926123ec87612397565b610a43565b946123a4565b91019190916123ca565b9061240b916123aa565b90565b9061242e6124279261241e610132565b93848092612401565b0383610371565b565b6124399061240e565b90565b6124536124589161244b612389565b506005610827565b612430565b90565b9061249b949392916124968161249061248a612484600161247e88956003610d8b565b01610239565b92610432565b91610432565b1461209f565b61249d565b565b906124c8949392916124c36124be600c6124b8846003610d8b565b01610e0f565b612161565b6126b6565b565b5f7f5265636569766572206e6f742076657269666965640000000000000000000000910152565b6124fe601560209261045c565b612507816124ca565b0190565b6125209060208101905f8183039101526124f1565b90565b1561252a57565b612532610132565b62461bcd60e51b8152806125486004820161250b565b0390fd5b90565b90565b61255c60a0610557565b90565b5f5260205f2090565b5490565b61257581612568565b82101561258f5761258760059161255f565b910201905f90565b6101cc565b9061260a60806004612610946125b75f82016125b15f88016118f1565b9061191c565b6125d0600182016125ca602088016118f1565b9061191c565b6125e9600282016125e3604088016118e4565b9061185a565b612602600382016125fc606088016118e4565b9061185a565b01920161193c565b90611b15565b565b91906126235761262191612594565b565b6118d1565b908154916801000000000000000083101561265857826126509160016126569501815561256c565b90612612565b565b61035d565b612666906107f3565b90565b6126729061265d565b90565b61267e9061080f565b90565b612689610132565b3d5f823e3d90fd5b6126a06126a691939293610144565b92610144565b82039182116126b157565b61180c565b90506126d66126d160026126cb81869061124c565b01610e0f565b612523565b6126f2836126ec6126e65f611644565b91610144565b116117e3565b6127b561270961270460038490610d8b565b61254c565b9461273261271960018801610239565b96612727866001830161191c565b600860019101611b53565b61275061274961274460058790610827565b611d79565b8490611db1565b61276461275f600485906101b6565b61254f565b6127b087926127a7879161279e426127958c939561278c612783612552565b9a5f8c01611896565b60208a01611896565b60408801611888565b60608601611888565b608084016118a4565b612628565b5f8080806127ca6127c589612669565b612675565b879082821561288e575bf11561288957346127ed6127e785610144565b91610144565b1161284d575b9290919261284861283661283061282a7f516c8b339c132041f2a10d0e873c5eaf4944299c02b458d7491b7f7ac1574d2f9461019a565b9461081b565b9461081b565b9461283f610132565b918291826106e2565b0390a4565b5f80808061286261285d33612669565b612675565b61286d348990612691565b90828215612880575bf16127f357612681565b506108fc612876565b612681565b506108fc6127d4565b906128a49493929161245b565b565b5f90565b606090565b5f90565b5f90565b908161290a61290561290f9f9e9d9c9b9a9998979695948f8f908f918f928f938f948f958f968f978f988f998f9a6128ff9b600c9d5050505050505050505050506003610d8b565b01610e0f565b612161565b612929565b909192939495969798999a9b565b6129269061039a565b90565b9161294f9b99979593916129549d9b999795935050505050505050505050506003610d8b565b61254c565b9061296160018301610239565b9061296e60028401610239565b92600381019260048201926129856005840161025d565b926129926006820161025d565b9261299f6007830161025d565b926129ac60088401610dbb565b926129b960088201610de8565b926129c66009830161025d565b926129fb6129f56129e96129e3600b600a88019701959f9e61291d565b9c61291d565b9a99989796959461291d565b9261291d565b90565b612a6d90612a0a6128a6565b612a126128a6565b612a1a6128aa565b612a226128aa565b612a2a611507565b612a32611507565b612a3a611507565b90612a436128af565b92612a4c6128b3565b94612a55611507565b96612a5e6128aa565b98612a676128aa565b9a6128b7565b909192939495969798999a9b565b606090565b90612aa891612aa3612a9e600c612a98856003610d8b565b01610e0f565b612161565b612bd4565b90565b67ffffffffffffffff8111612ac35760208091020190565b61035d565b90612ada612ad583612aab565b610557565b918252565b612ae960a0610557565b90565b90612b6b612b626004612afd612adf565b94612b14612b0c5f8301610239565b5f8801611896565b612b2c612b2360018301610239565b60208801611896565b612b44612b3b6002830161025d565b60408801611888565b612b5c612b536003830161025d565b60608801611888565b0161039a565b608084016118a4565b565b612b7690612aec565b90565b90612b83826101e0565b612b8c81612ac8565b92612b9a60208501916101e4565b5f915b838310612baa5750505050565b60056020600192612bba85612b6d565b815201920192019190612b9d565b612bd190612b79565b90565b612be991612be4915060046101b6565b612bc8565b90565b612bfd90612bf8612a7b565b612a80565b90565b5f90565b90565b612c42612c4791612c16612c00565b50612c1f6128aa565b50612c28612364565b50612c31611507565b50612c3a6128aa565b50600261124c565b612c04565b90612c535f8301611282565b916001810192612c6560028301610e0f565b92612c8b612c836004612c7a6003870161025d565b9501939661291d565b94939261291d565b90565b60207f6f6e000000000000000000000000000000000000000000000000000000000000917f4f6e6c792061646d696e2063616e20706572666f726d207468697320616374695f8201520152565b612ce8602260409261045c565b612cf181612c8e565b0190565b612d0a9060208101905f818303910152612cdb565b90565b15612d1457565b612d1c610132565b62461bcd60e51b815280612d3260048201612cf5565b0390fd5b90612d66939291612d6133612d5b612d55612d505f610239565b610432565b91610432565b14612d0d565b612fc1565b565b612d7c612d77612d8192611641565b610197565b610427565b90565b612d8d90612d68565b90565b5f7f496e76616c696420616464726573730000000000000000000000000000000000910152565b612dc4600f60209261045c565b612dcd81612d90565b0190565b612de69060208101905f818303910152612db7565b90565b15612df057565b612df8610132565b62461bcd60e51b815280612e0e60048201612dd1565b0390fd5b5f7f4e616d652063616e6e6f7420626520656d707479000000000000000000000000910152565b612e46601460209261045c565b612e4f81612e12565b0190565b612e689060208101905f818303910152612e39565b90565b15612e7257565b612e7a610132565b62461bcd60e51b815280612e9060048201612e53565b0390fd5b612e9e60c0610557565b90565b90612eab90611199565b9052565b612eb99051611199565b90565b60a01b90565b90612ed160ff60a01b91612ebc565b9181191691161790565b612ee490611199565b90565b90565b90612eff612efa612f0692612edb565b612ee7565b8254612ec2565b9055565b90612f9860a06004612f9e94612f2d5f8201612f275f88016118f1565b9061191c565b612f455f8201612f3f60208801612eaf565b90612eea565b612f5e60018201612f586040880161193c565b90611b15565b612f7760028201612f7160608801611bcc565b90611be8565b612f9060038201612f8a608088016118e4565b9061185a565b01920161193c565b90611b15565b565b90612faa91612f0a565b565b9190612fbf905f602085019401906111b1565b565b91926130736130849294612ff085612fe9612fe3612fde5f612d84565b610432565b91610432565b1415612de9565b61301c613004612fff8361228a565b61228d565b6130166130105f611644565b91610144565b11612e6b565b61306a8593613061889361305860019161304f42959761304661303d612e94565b9b5f8d01611896565b60208b01612ea1565b604089016118a4565b606087016118c3565b60808501611888565b60a083016118a4565b61307f6002849061124c565b612fa0565b6130c36130b17f9f192d90f005c1163e866a86163fcf3aa01231f40671da1959d438410ae6c82c9261081b565b926130ba610132565b91829182612fac565b0390a2565b906130d4939291612d36565b565b613103906130fe336130f86130f26130ed5f610239565b610432565b91610432565b14612d0d565b613187565b565b5f7f496e76616c69642061646d696e20616464726573730000000000000000000000910152565b613139601560209261045c565b61314281613105565b0190565b61315b9060208101905f81830391015261312c565b90565b1561316557565b61316d610132565b62461bcd60e51b81528061318360048201613146565b0390fd5b6131b6906131b0816131a96131a361319e5f612d84565b610432565b91610432565b141561315e565b5f61191c565b565b6131c1906130d6565b56fea2646970667358221220be137c2a91c6bebe0c7dbb4df8ff2401891c65c258314bf71c33188c53c7e9c064736f6c634300081e0033","linkReferences":{}},"methodIdentifiers":{"admin()":"f851a440","batchTransactions(uint256,uint256)":"1bd9baac","createProductBatch(address,string,string,uint256,uint256,uint256,uint256,string,string)":"3297146b","getBatchDetails(uint256)":"9d47dcc0","getBatchTransactions(uint256)":"aaddba58","getStakeholderBatches(address)":"8369a64f","getStakeholderDetails(address)":"ae51cef9","isVerifiedStakeholder(address)":"6fde5465","nextBatchId()":"8462a7f8","productBatches(uint256)":"a7fede55","registerStakeholder(address,uint8,string,string)":"d40d51b8","stakeholderBatches(address,uint256)":"6b396d98","stakeholders(address)":"c07cfca9","transferBatch(uint256,address,address,uint256,string)":"93858107","updateAdmin(address)":"e2f273bd","updateProductStatus(uint256,address,uint8)":"6a7f1fcb","verifyQuality(uint256,uint8,string)":"6b5a3a2b"},"id":16}